:1012B000010B01010C01C102C100C184C1814100C7
:1012C0000200010F00C103020D000002090000012D
:0212D000080014
:100FF400E4FF1214907F01121490E4FF1214C21241
:10100400000E1214F4D2AFE50B702B30020630043C
:1010140003120B623000031208C6900002E0600362
:101024001211E6C3E50E94E8E50D9403406D30011A
:1010340065120C848060E50B6401705FFB7A0079B3
:101044001012134AEF600DE50C64017002801BE47A
:10105400F50F80197B007A00791812134AEF600D9E
:10106400E50C64017004F50F8003750F013002066E
:10107400300403120B623000031208C6900002E031
:1010840060031211E6C3E50E94E8E50D9403400BEA
:10109400300103120C84E4F50DF50E121416B2039C
:0310A40002100B2C
:03000B000213924B
:10139200C0E0C0F0C083C082C0D075D000C000C021
:1013A20001C002C003C004C005C006C00712063750
:1013B200050EE50E7002050DD007D006D005D0044B
:1013C200D003D002D001D000D0D0D082D083D0F0D0
:0313D200D0E03236
:03002300020F2E9B
:100F2E00C0E0C083C082C0D075D000C000C004C075
:030F3E0005C007E4
:100F4100AF99E508B40A004003020FDE900F54F890
:100F5100282873020F72020F7C020F94020F9E0267
:100F61000FAA020FAF020FB4020FBE020FC8020F89
:100F7100D2EF6455706A7508018065EFFD7C0064ED
:100F81005370057508028058ED64514C704F750817
:100F910004804D900001EFF075080380439000003C
:100FA100EFF0750800D202803775080580327508A8
:100FB10006802D900005EFF075080780239000034F
:100FC100EFF07508088019900006EFF075080980A8
:100FD1000F900004EFF0750800D20080037508003F
:020FE100C298B4
:100FE300D007D005D004D000D0D0D082D083D0E0B9
:010FF30032CB
:080003000000000000000000F5
:1012D200014B00014C00014D00014E00014F000185
:0212E2005001B9
:1013D5008B288A29892AD3E52E9407748094805016
:1013E50012C3E52E952F120435AB2BAA2CA92DE59A
:1013F5002F801AC37407952FAB28AA29A92A12048E
:1014050035E52E252F24F9AB2BAA2CA92D12043551
:0114150022B4
:10149000EF14601804702AE4FEEEC394087480947C
:1014A00080501E74102EF8E4F60E80EDE4FEEEC3BC
:1014B000940874809480500974182EF8E4F60E8015
:0114C000ED3E
:0114C1002208
:1014C200EF14601804702AE4FEEEC394087480944A
:1014D20080501E74102EF876FF0E80EDE4FEEEC3EF
:1014E200940874809480500974182EF876FF0E8048
:0114F200ED0C
:0114F30022D6
:06134A008B318A32893369
:1013500078347C007D007BFF7A0079037E007F0873
:101360001203D47E007F037D007B007A0079341263
:10137000060BA833AC32AD317B007A0079347E00A5
:101380007F081205E7EF3395E04F70037F01227F5E
:01139000005C
:011391002239
:0C10A7001551A851E4F6AB4CAD4B7F0195
:1010B3001551A851A6031551A851A6051551A851BC
:0410C300A607155116
:1010C700E5512403F8C3740796A851F6A85108E61A
:1010D70014603D047076A8510808E6FF2410F8C094
:1010E70000E6FEA851E6FDF87401088002C333D874
:1010F700FCF45ED000F674102FF8C000E6FFE5514F
:101107002404F8E6FEA805088002C333D8FC80381B
:10111700A8510808E6FF2418F8C000E6FEA851E623
:10112700FDF87401088002C333D8FCF45ED000F6E2
:1011370074182FF8C000E6FFE5512404F8E6FEA86E
:0C11470005088002C333D8FC4FD000F62E
:07115300E5512405F55122CE
:07145600FD12041CFBE4FF82
:10145D00C374079BFEEF14601404702474102DF8F0
:10146D00E6FFA806088002C313D8FC800F74182D60
:10147D00F8E6FFA806088002C313D8FC5401FF222A
:02148D007FFFDF
:01148F00223A
:100A3800AE03E50C24FE600E14601A14602624032D
:100A48007038ED048002ED14AB2BAA2CA92D1204EA
:100A580035EE14801CED04AB2BAA2CA92D120435FD
:100A6800EE04800DED14AB2BAA2CA92D120435EE43
:100A780004AB2EAA2FA930120435EF14606C046061
:100A880003020B5FAB2BAA2CA92D12041CFF339574
:100A9800E0FED3E49FEE6480F87480985049EF94A8
:100AA80007EE64809480503FAB2EAA2FA930120421
:100AB8001CFF3395E0FED3E49FEE6480F8748098C1
:100AC8005025EF9407EE64809480501BAB2BAA2C22
:100AD800A92D12041CAB2EAA2FA930121456EF70A0
:100AE800037F01227F00227F0022AB2BAA2CA92D95
:100AF80012041CFF3395E0FED3E49FEE6480F87483
:100B080080985050EF9407EE648094805046AB2E46
:100B1800AA2FA93012041CFF3395E0FED3E49FEE00
:100B28006480F8748098502CEF9407EE6480948069
:100B38005022AB2BAA2CA92D12041CFDAB2EAA2FD8
:100B4800A93012041CFB7F0112145DEF70037F01B2
:0A0B5800227F00227F00227FFF228F
:100E4F00AE03E50C24FE601814601914602A240305
:100E5F00703BAB2BAA2CA92DED120435EE14802478
:100E6F00ED148002ED04AB2BAA2CA92D120435AB87
:100E7F002EAA2FA930EE8012AB2BAA2CA92DED1282
:100E8F000435EE04AB2EAA2FA930120435AB2BAAD2
:100E9F002CA92D12041CFD3395E0FCD3E49DEC64CA
:100EAF0080F87480985075ED9407EC6480948050AE
:100EBF006BAB2EAA2FA93012041CFD3395E0FCD387
:100ECF00E49DEC6480F87480985051ED9407EC64C5
:100EDF008094805047EF14601E04703DAB2BAA2CFA
:100EEF00A92D12041CAB2EAA2FA930121456EF7085
:100EFF00037F01227F0022AB2BAA2CA92D12041CE9
:100F0F00FDAB2EAA2FA93012041CFB7F0112145D1A
:0F0F1F00EF70037F01227F00227FFF227F0022DD
:100D6F00AE03E50C24FE600E14601914602A2403F0
:100D7F00703BED048024AB2BAA2CA92DED1204356A
:100D8F00EE14800CAB2BAA2CA92DED120435EE041A
:100D9F00AB2EAA2FA9308012ED14AB2BAA2CA92DA4
:100DAF00120435AB2EAA2FA930EE120435AB2BAAA5
:100DBF002CA92D12041CFD3395E0FCD3E49DEC64AB
:100DCF0080F87480985076ED9407EC64809480508E
:100DDF006CAB2EAA2FA93012041CFD3395E0FCD367
:100DEF00E49DEC6480F87480985052ED9407EC64A5
:100DFF008094805048EF14601F04703EAB2BAA2CD8
:100E0F00A92D12041CFDAB2EAA2FA930121457EFD7
:100E1F0070037F01227F0022AB2BAA2CA92D120475
:100E2F001CFDAB2EAA2FA93012041CFB7F0112143C
:100E3F005DEF70037F01227F00227FFF227F002260
:100C8400E50C64017077E50F7035FB7D07FF1214E6
:100C94005DEF7003020D6E7B07E4FD7F0112145DAE
:100CA400EF6003020D6E1551A851F6FB7D07FF128C
:100CB40010B31551A85176017B077D00020D69E53B
:100CC4000F64016003020D6EFB7D077F0112145D4A
:100CD400EF7003020D6E7B07E4FDFF12145DEF60FD
:100CE40003020D6E1551A851F6FB7D077F0112100A
:100CF400B31551A85176017B077D008037E50C645C
:100D0400047067E50F70317B07FD7F0112145DEFFE
:100D14006058E4FB7D07FF12145DEF704D1551A878
:100D240051F67B07FD7F011210B31551A8517601CE
:100D34007B007D077F00802F7B07E4FDFF12145D9D
:100D4400EF6027E4FB7D077F0112145DEF701B1534
:100D540051A851F67B07FDFF1210B31551A8517627
:0B0D6400017B007D077F011210B3220D
:10063700E4F527FCE5506018752B00752C00752D27
:100647004C854D2E854E2F7B007A00794B1213D5A2
:10065700E54F600302075EAB4CAD4BFF12145DEF35
:10066700700302082B752B00752C00752D21752E34
:1006770000752F00753022AB4CAD4BE4FF120A38E2
:10068700EF601B1551A851E4F6AB4CAD4BFF1210B0
:10069700B31551A8517601AB22AD21020759752B2D
:1006A70000752C00752D23752E00752F00753024CD
:1006B700AB4CAD4BE4FF120E4F8F27752B00752CFB
:1006C70000752D25752E00752F00753026AB4CADA6
:1006D7004BE4FF120D6FAC07E527603AEC6037304B
:1006E700031A1551A851E4F6AB4CAD4BFF1210B3EA
:1006F7001551A8517601AB26AD2580181551A85183
:10070700E4F6AB4CAD4BFF1210B31551A85176016F
:10071700AB24AD23803CEC601A1551A851E4F6AB2D
:100727004CAD4BFF1210B31551A8517601AB26AD56
:1007370025801FE527700302082B1551A851E4F601
:10074700AB4CAD4BFF1210B31551A8517601AB243A
:10075700AD237F00020828AB4CAD4B7F0112145D1F
:10076700EF700302082B752B00752C00752D217572
:100777002E00752F00753022AB4CAD4B7F01120A4E
:1007870038EF60121210A71551A8517601AB22ADB0
:10079700217F01020828752B00752C00752D237504
:1007A7002E00752F00753024AB4CAD4B7F01120E18
:1007B7004F8F27752B00752C00752D25752E00750D
:1007C7002F00753026AB4CAD4B7F01120D6FAC0778
:1007D700E5276026EC602330030F1210A71551A8F8
:1007E700517601AB26AD25800D1210A71551A851E2
:1007F7007601AB24AD237F018027EC60111210A78F
:100807001551A8517601AB26AD257F018013E52749
:1008170060121210A71551A8517601AB24AD237FA2
:10082700011210B3E50C147058755001054EAF4D09
:100837007E00D3EF9407748094805016EF2401FF55
:10084700EE33FEC3E54E9FEE6480F8748098406EE9
:100857008017D3E54D940D748094805012C3740FA4
:10086700954DFFE54EC39F4055054DE4F54E22E5F6
:100877004F70047F0180027F008F4FE4F54DF54EE6
:1008870022E4F550054CAF4CEF75F0081203FA85DA
:10089700F04CAF4CEF3395E04F7023054BAF4BEF68
:1008A70075F0081203FA85F04BAF4BEF3395E04F25
:0E08B700700CE54F70047F0180027F008F4FB0
:0108C5002210
:0A12E400083C8040201008040201BD
:0212FE008F322D
:10130000E4F533F533C3E533940874809480502AB0
:10131000E532C4333333548024FF92929290E53205
:10132000C313F532C2B27F017E0012150FD2B27F15
:10133000017E0012150F053380CBD294D2CD7F01F0
:091340007E0012150FC294C2CD0B
:011349002281
:041252008F328D3317
:10125600E4F534F534C3E534940874809480503A48
:10126600E532C4333333548024FF9293E532C313FB
:10127600F532E533C4333333548024FF9291E5339A
:10128600C313F533C2B27F017E0012150FD2B27FAF
:10129600017E0012150F053480BBD295D2B37F01B3
:0912A6007E0012150FC295C2B3BF
:0112AF00221C
:10141600E4F531F531C3E531940874809480502F9A
:10142600743C2531F8E6FF1212FE74102531F8E6F9
:10143600F4FF74182531F8E6F4FD1212527F0A7E85
:0F1446000012150F7DFF7FFF121252053180C675
:011455002274
:0F12EE00024400000246000001480002490000CF
:1014F400759850438E01438E0475D7F375D6FC530B
:0B150400A23F43A240D2AC438E102255
:100B6200900000E0FE900001E0FDEEFCEC12024A73
:100B7200E4FBFAF9784712012FE4FBFA793478435F
:100B8200120026120283AD07AC06EC12024A900054
:100B920007120455900007E0FCA3E0FDA3E0FEA3CA
:100BA200E0FFE4FBFA791178431201CC601C401A91
:100BB200E4FFFE7D117CC3900007E0F8A3E0F9A3F7
:100BC200E0FAA3E0FB1201CC5006750C01020C8185
:100BD200900007E0FCA3E0FDA3E0FEA3E0FFE4FB3E
:100BE200FA791178C31201CC6002501FE4FFFE7D36
:100BF200347CC2900007E0F8A3E0F9A3E0FAA3E096
:100C0200FB1201CC5005750C038074900007E0FCC8
:100C1200A3E0FDA3E0FEA3E0FFE4FBFA793478C28F
:100C22001201CC6002501FE4FFFE7D347C42900032
:100C320007E0F8A3E0F9A3E0FAA3E0FB1201CC502D
:100C420005750C048039900007E0FCA3E0FDA3E0E9
:100C5200FEA3E0FFE4FBFA793478421201CC600291
:100C6200501DE4FFFE7D117C43900007E0F8A3E0F5
:100C7200F9A3E0FAA3E0FB1201CC5003750C02C207
:020C820002224C
:1008C600AF0CEF64016008EF6404600302098290D4
:1008D6000004E0FE900006E0FDEEFCEC12024A90F9
:1008E6000013120455E4FBFAF97847900013E0FC74
:1008F600A3E0FDA3E0FEA3E0FF12012FE4FBFA79DB
:10090600807841120026900013120455900013E0DF
:10091600FCA3E0FDA3E0FEA3E0FF7B667A667926F2
:1009260078BF1201CC5027E4FFFEFDFC900013E0D7
:10093600F8A3E0F9A3E0FAA3E0FB1201CC500FE51F
:100946000C640170099000027404F0020A359000EC
:1009560013E0FCA3E0FDA3E0FEA3E0FFE4FBFA79CD
:10096600A0783F1201CC4003020A35E50C6404600E
:1009760003020A3590000204F0020A35AF0CEF6458
:10098600036008EF64026003020A35900003E0FE8C
:10099600900005E0FDEEFCEC12024A90000F1204F6
:1009A60055E4FBFAF9784790000FE0FCA3E0FDA3BD
:1009B600E0FEA3E0FF12012FE4FBFA7980784112F2
:1009C600002690000F12045590000FE0FCA3E0FDF6
:1009D600A3E0FEA3E0FF7433FBFAF978BF1201CC63
:1009E6005026E4FFFEFDFC90000FE0F8A3E0F9A31B
:1009F600E0FAA3E0FB1201CC500EE50C640370088C
:100A06009000027402F0802790000FE0FCA3E0FD46
:100A1600A3E0FEA3E0FF7BCD7ACC79AC783F120150
:100A2600CC500CE50C640270069000027403F0C210
:020A360000229C
:1011E600850D46850E47C3E5479545FFE54695447B
:1011F600FEC3940040028013E54724E8FFE5463429
:1012060003FEC3EF9545FFEE9544FEEF254AF54AEA
:10121600EE3549F549854644854745E5481460134A
:10122600047028900002E06022F50CC204754801A3
:10123600E48014C3E54A94C8E5499400400DE4905F
:0B1246000002F0D204F548F549F54A1B
:01125100227A
:10000E00538E7F5389F0758A48758CF4C28DC2B9B0
:05001E00D28CD2A922E2
:0B150F00EF1FAC0670011E4C70F622AE
:10002600EC4D6011E8497017ED33EC3304600DE4D4
:10003600FCFFFEFD22E933E8330470F80202EF12FA
:1000460002BA58046009E4CC2481500628500902FB
:1000560002F92840030202F6C0E0EB4A7044B98078
:1000660006D0E0FB0202E5EF4E701CBD8008EBFFF8
:10007600EAFEE9FD80EBE98DF0A4FEE5F002010F52
:10008600E9CDF9EAFEEBFFEF89F0A4FCE5F0CE89B5
:10009600F0A42EFFE435F0CD89F0A42DFEE435F072
:1000A6008067EF4E7005BD80D780C3EF8BF0A4ACA0
:1000B600F0EE8BF0A42CFCE435F0F8EF8AF0A42CDB
:1000C600E5F038FCE433CB8DF0A42CFCE5F03BF8EE
:1000D600EE8AF0A42CFCE5F038F8E433CF89F0A4DE
:1000E6002CFCE5F038CF3400CE89F0A42FFFE5F0E4
:1000F6003EFEE433C98DF0A42EFEE5F039CD8AF03C
:10010600A42FFFE5F03EFEE43DFD33D0E0FB5007B3
:100116000BBB000F0202F9EC2CFCEF33FFEE33FEB3
:06012600ED33FD0202D1E1
:10012C000202F9EC5D046005E8590470030202EF69
:10013C001202BA580460F6EC4860F2EC7004FDFE52
:10014C00FF22C860DB2481C85009C39860025006A6
:10015C000202F69850CAF582E9294B4A7005AB8227
:10016C000202E575F0007C1A7880C3EF9BEE9AEDE5
:10017C0099400DC3EF9BFFEE9AFEED99FDE842F01E
:10018C00DC23ACF0D0E0FFD0E0FED0E0FDAB822071
:10019C00E7101BEB60BAEC2CFCEF33FFEE33FEEDFB
:1001AC0033FD0202D1E803F830E705C0F075F0002A
:1001BC00EF2FFFEE33FEED33FD40B830E7C280AADF
:1001CC0074F8CC6480CCC86480C8F58204604FC3DA
:1001DC00EB9FF5F0EA9E42F0E99D42F0E89C45F079
:1001EC00603C501DE5825FFFE582D313CB5BCBF403
:1001FC002B5582FB50280ABA002409B9002008802C
:10020C001DE5825BFBE582D313CF5FCFF4C3132FC5
:10021C005582FF50090EBE00050DBD00010CC3EB4D
:10022C009FF5F0EA9E42F0E99D42F0E89C45F060B3
:09023C0007CC4820E701B3EC22D5
:1002450075F020800E75F010800575F0087D007E34
:10025500007F003392D530D503120447EC334010AC
:10026500EF33FFEE33FEED33FDEC33FCD5F0ED223D
:0E027500E5F0247EA2D513CC92E7CDCEFF2279
:10028300EDD2E7CD33EC3392D524814006E4FFFE73
:10029300FDFC22FCE4CFCECDCC24E0501174FF80D2
:1002A300EDC3CC13CCCD13CDCE13CECF13CF04706F
:0702B300F030D5DE02044724
:1002BA00E9D2E7C933E833F892D5EDD2E7CD33EC8A
:0702CA0033FC5002B2D52203
:1002D100EC30E7100FBF000C0EBE00080DBD00048E
:1002E1000BEB6014A2D5EB13FCED92E7FD2274FF3A
:1002F100FCFDFEFF22E480F8A2D574FF13FC7D8093
:03030100E480EFA6
:0300000002115A90
:0C115A00787FE4F6D8FD7581510211A1E8
:10030400E709F608DFFA8046E709F208DFFA803EDB
:1003140088828C83E709F0A3DFFA8032E309F608C8
:10032400DFFA8078E309F208DFFA807088828C8330
:10033400E309F0A3DFFA806489828A83E0A3F608E4
:10034400DFFA805889828A83E0A3F208DFFA804CBE
:1003540080D280FA80C680D4806980F28033801095
:1003640080A680EA809A80A880DA80E280CA8033FE
:1003740089828A83ECFAE493A3C8C582C8CCC58376
:10038400CCF0A3C8C582C8CCC583CCDFE9DEE78046
:100394000D89828A83E493A3F608DFF9ECFAA9F0C5
:1003A400EDFB2289828A83ECFAE0A3C8C582C8CC1B
:1003B400C583CCF0A3C8C582C8CCC583CCDFEADE34
:1003C400E880DB89828A83E493A3F208DFF980CC96
:1003D40088F0EF60010E4E60C388F0ED2402B4048F
:1003E4000050B9F582EB2402B4040050AF23234536
:0603F40082239003547304
:1003FA00C2D530F707B2D563F0FF05F030E70CB28B
:10040A00D5F4048463F0FF05F080018430D502F44A
:02041A000422BA
:10041C00BB010689828A83E0225002E722BBFE02DE
:09042C00E32289828A83E4932211
:10043500BB010689828A83F0225002F722BBFE01A6
:02044500F322A0
:0E044700C3E49FFFE49EFEE49DFDE49CFC22C6
:0C045500ECF0A3EDF0A3EEF0A3EFF0221A
:10046100E3F5F009E208B5F06BDFF58067E3F5F03D
:1004710009E608B5F05EDFF5805A87F009E608B5B0
:10048100F052DFF6804E87F009E208B5F046DFF65C
:10049100804288828C8387F009E0A3B5F036DFF6CD
:1004A100803288828C8387F009E493A3B5F025DF3D
:1004B100F5802188828C83E3F5F009E0A3B5F0147F
:1004C100DFF5801088828C83E3F5F009E493A3B50E
:1004D100F002DFF4020590808780E9809080D4806B
:1004E1003E8015806E807E809D80B7808D80A38048
:1004F100518074803C02059C89828A83ECFAE493E2
:10050100F5F0A3C8C582C8CCC583CCE493A3C8C504
:1005110082C8CCC583CCB5F076DFE3DEE18070899B
:10052100828A83E493F5F0A3E208B5F062DFF480F8
:100531005E89828A83E0F5F0A3E608B5F051DFF524
:10054100804D89828A83E0F5F0A3E208B5F040DFAF
:10055100F5803C89828A83E493F5F0A3E608B5F03F
:100561002EDFF4802A8002805789828A83ECFAE4A4
:1005710093F5F0A3C8C582C8CCC583CCE0A3C8C598
:1005810082C8CCC583CCB5F006DFE4DEE280007F13
:10059100FFB5F0020F2240027F012289828A83EC9B
:1005A100FAE0F5F0A3C8C582C8CCC583CCE0A3C8E6
:1005B100C582C8CCC583CCB5F0D5DFE5DEE380CFFD
:1005C10089828A83ECFAE0F5F0A3C8C582C8CCC55C
:1005D10083CCE493A3C8C582C8CCC583CCB5F0AFA6
:1005E100DFE4DEE280A988F0EF60010E4E60ABED42
:1005F1002402B404005098F582EB2402B4040050A4
:0A0601008E23234582239004D87352
:10060B00EF4E6012EF60010EEDBB010B89828A8306
:10061B00F0A3DFFCDEFA2289F05007F709DFFCA913
:0C062B00F022BBFEFCF309DFFCA9F0226A
:10116600020FF4E493A3F8E493A34003F68001F29C
:1011760008DFF48029E493A3F85407240CC8C3338A
:10118600C4540F4420C8834004F456800146F6DF59
:10119600E4800B01020408102040809012B0E47E27
:1011A600019360BCA3FF543F30E509541FFEE4934E
:1011B600A360010ECF54C025E060A840B8E493A315
:1011C600FAE493A3F8E493A3C8C582C8CAC583CA40
:1011D600F0A3C8C582C8CAC583CADFE9DEE780BEF8
:0112FD0000F0
:00000001FF
