BL51 BANKED LINKER/LOCATER V6.22.2.0                                                    01/08/2024  18:39:23  PAGE 1


BL51 BANKED LINKER/LOCATER V6.22.2.0, INVOKED BY:
D:\KEIL_V5\C51\BIN\BL51.EXE ..\Object\main.obj, ..\Object\Matrix.obj, ..\Object\74HC595.obj, ..\Object\IMU.obj, ..\Objec
>> t\Timer.obj TO ..\Object\Hourglass PRINT (.\Hourglass.m51) RAMSIZE (256)


MEMORY MODEL: SMALL WITH FLOATING POINT ARITHMETIC


INPUT MODULES INCLUDED:
  ..\Object\main.obj (MAIN)
  ..\Object\Matrix.obj (MATRIX)
  ..\Object\74HC595.obj (74HC595)
  ..\Object\IMU.obj (IMU)
  ..\Object\Timer.obj (TIMER)
  D:\KEIL_V5\C51\LIB\C51FPS.LIB (?C?FPMUL)
  D:\KEIL_V5\C51\LIB\C51FPS.LIB (?C?FPDIV)
  D:\KEIL_V5\C51\LIB\C51FPS.LIB (?C?FPCMP)
  D:\KEIL_V5\C51\LIB\C51FPS.LIB (?C?FCAST)
  D:\KEIL_V5\C51\LIB\C51FPS.LIB (?C?CASTF)
  D:\KEIL_V5\C51\LIB\C51FPS.LIB (?C?FPGETOPN)
  D:\KEIL_V5\C51\LIB\C51S.LIB (?C_STARTUP)
  D:\KEIL_V5\C51\LIB\C51S.LIB (?C?COPY)
  D:\KEIL_V5\C51\LIB\C51S.LIB (?C?SCDIV)
  D:\KEIL_V5\C51\LIB\C51S.LIB (?C?CLDPTR)
  D:\KEIL_V5\C51\LIB\C51S.LIB (?C?CSTPTR)
  D:\KEIL_V5\C51\LIB\C51S.LIB (?C?LNEG)
  D:\KEIL_V5\C51\LIB\C51S.LIB (?C?LSTXDATA)
  D:\KEIL_V5\C51\LIB\C51S.LIB (?C_IBP)
  D:\KEIL_V5\C51\LIB\C51S.LIB (?C?MEMCMP)
  D:\KEIL_V5\C51\LIB\C51S.LIB (?C?MEMSET)
  D:\KEIL_V5\C51\LIB\C51S.LIB (?C_INIT)


LINK MAP OF MODULE:  ..\Object\Hourglass (MAIN)


            TYPE    BASE      LENGTH    RELOCATION   SEGMENT NAME
            -----------------------------------------------------

            * * * * * * *   D A T A   M E M O R Y   * * * * * * *
            REG     0000H     0008H     ABSOLUTE     "REG BANK 0"
            DATA    0008H     0018H     UNIT         ?DT?MAIN
            BIT     0020H.0   0000H.5   UNIT         ?BI?MAIN
                    0020H.5   0000H.3                *** GAP ***
            DATA    0021H     001BH     UNIT         _DATA_GROUP_
            DATA    003CH     0008H     UNIT         ?DT?74HC595
            DATA    0044H     0007H     UNIT         ?DT?IMU
            DATA    004BH     0006H     UNIT         ?DT?MATRIX
            DATA    0051H     0001H     UNIT         ?C?LIB_DATA
            IDATA   0052H     0001H     UNIT         ?STACK

            * * * * * * *  X D A T A   M E M O R Y  * * * * * * *
            XDATA   0000H     0017H     UNIT         ?XD?MAIN

            * * * * * * *   C O D E   M E M O R Y   * * * * * * *
            CODE    0000H     0003H     ABSOLUTE     
            CODE    0003H     0008H     UNIT         ?CO?MATRIX
            CODE    000BH     0003H     ABSOLUTE     
BL51 BANKED LINKER/LOCATER V6.22.2.0                                                  01/08/2024  18:39:23  PAGE 2


            CODE    000EH     0015H     UNIT         ?PR?TIMER0_INIT?TIMER
            CODE    0023H     0003H     ABSOLUTE     
            CODE    0026H     0611H     UNIT         ?C?LIB_CODE
            CODE    0637H     028FH     UNIT         ?PR?MATRIX_UPDATE?MATRIX
            CODE    08C6H     0172H     UNIT         ?PR?GET_ACCELERATION?IMU
            CODE    0A38H     012AH     UNIT         ?PR?_CAN_GODOWN?MATRIX
            CODE    0B62H     0122H     UNIT         ?PR?GET_DIRECTION?IMU
            CODE    0C84H     00EBH     UNIT         ?PR?PASSTHROUGH?MATRIX
            CODE    0D6FH     00E0H     UNIT         ?PR?_CAN_GORIGHT?MATRIX
            CODE    0E4FH     00DFH     UNIT         ?PR?_CAN_GOLEFT?MATRIX
            CODE    0F2EH     00C6H     UNIT         ?PR?UART_IMU_IRQHANDER?MAIN
            CODE    0FF4H     00B3H     UNIT         ?PR?MAIN?MAIN
            CODE    10A7H     00B3H     UNIT         ?PR?_?SET_A_POINT?MATRIX
            CODE    115AH     008CH     UNIT         ?C_C51STARTUP
            CODE    11E6H     006CH     UNIT         ?PR?ACCELERATION_ACTION?IMU
            CODE    1252H     005EH     UNIT         ?PR?_WRITE_DATA_COL?74HC595
            CODE    12B0H     004EH     UNIT         ?C_INITSEG
            CODE    12FEH     004CH     UNIT         ?PR?_WRITE_DATA_ROW?74HC595
            CODE    134AH     0048H     UNIT         ?PR?_MATRIX_IS_EMPTY?MATRIX
            CODE    1392H     0043H     UNIT         ?PR?TIMER0_100US_IRQHANDER?MAIN
            CODE    13D5H     0041H     UNIT         ?PR?_XY_INV_TRANSFOR?MATRIX
            CODE    1416H     0040H     UNIT         ?PR?DISPLAY_UPDATE?74HC595
            CODE    1456H     003AH     UNIT         ?PR?_IS_A_SAND?MATRIX
            CODE    1490H     0032H     UNIT         ?PR?_MATRIX_CLEAR?MATRIX
            CODE    14C2H     0032H     UNIT         ?PR?_MATRIX_FILL?MATRIX
            CODE    14F4H     001BH     UNIT         ?PR?UART_INIT?IMU
            CODE    150FH     000BH     UNIT         ?PR?_DELAY_US?TIMER



OVERLAY MAP OF MODULE:   ..\Object\Hourglass (MAIN)


SEGMENT                                   DATA_GROUP 
  +--> CALLED SEGMENT                   START    LENGTH
-------------------------------------------------------
?PR?TIMER0_100US_IRQHANDER?MAIN         -----    -----
  +--> ?PR?MATRIX_UPDATE?MATRIX

?PR?MATRIX_UPDATE?MATRIX                0021H    0007H
  +--> ?PR?_XY_INV_TRANSFOR?MATRIX
  +--> ?PR?_IS_A_SAND?MATRIX
  +--> ?PR?_CAN_GODOWN?MATRIX
  +--> ?PR?_?SET_A_POINT?MATRIX
  +--> ?PR?_CAN_GOLEFT?MATRIX
  +--> ?PR?_CAN_GORIGHT?MATRIX

?PR?_XY_INV_TRANSFOR?MATRIX             0028H    0008H

?PR?_CAN_GODOWN?MATRIX                  0028H    0009H
  +--> ?PR?_IS_A_SAND?MATRIX

?PR?_CAN_GOLEFT?MATRIX                  0028H    0009H
  +--> ?PR?_IS_A_SAND?MATRIX

?PR?_CAN_GORIGHT?MATRIX                 0028H    0009H
  +--> ?PR?_IS_A_SAND?MATRIX
BL51 BANKED LINKER/LOCATER V6.22.2.0                                                  01/08/2024  18:39:23  PAGE 3



*** NEW ROOT ***************************************************

?C_C51STARTUP                           -----    -----
  +--> ?PR?MAIN?MAIN
  +--> ?C_INITSEG

?PR?MAIN?MAIN                           -----    -----
  +--> ?PR?_MATRIX_CLEAR?MATRIX
  +--> ?PR?_MATRIX_FILL?MATRIX
  +--> ?PR?TIMER0_INIT?TIMER
  +--> ?PR?UART_INIT?IMU
  +--> ?PR?GET_DIRECTION?IMU
  +--> ?PR?GET_ACCELERATION?IMU
  +--> ?PR?ACCELERATION_ACTION?IMU
  +--> ?PR?PASSTHROUGH?MATRIX
  +--> ?PR?_MATRIX_IS_EMPTY?MATRIX
  +--> ?PR?DISPLAY_UPDATE?74HC595

?PR?PASSTHROUGH?MATRIX                  -----    -----
  +--> ?PR?_IS_A_SAND?MATRIX
  +--> ?PR?_?SET_A_POINT?MATRIX

?PR?_MATRIX_IS_EMPTY?MATRIX             0031H    000BH
  +--> ?CO?MATRIX

?PR?DISPLAY_UPDATE?74HC595              0031H    0001H
  +--> ?PR?_WRITE_DATA_ROW?74HC595
  +--> ?PR?_WRITE_DATA_COL?74HC595
  +--> ?PR?_DELAY_US?TIMER

?PR?_WRITE_DATA_ROW?74HC595             0032H    0002H
  +--> ?PR?_DELAY_US?TIMER

?PR?_WRITE_DATA_COL?74HC595             0032H    0003H
  +--> ?PR?_DELAY_US?TIMER



SYMBOL TABLE OF MODULE:  ..\Object\Hourglass (MAIN)

  VALUE           TYPE          NAME
  ----------------------------------

  -------         MODULE        MAIN
  C:0000H         SYMBOL        _ICE_DUMMY_
  D:0080H         PUBLIC        P0
  D:0009H         PUBLIC        timer0_1s_cnt
  D:0090H         PUBLIC        P1
  D:00A0H         PUBLIC        P2
  D:00B0H         PUBLIC        P3
  X:0000H         PUBLIC        rollH
  D:00C0H         PUBLIC        P4
  D:00C8H         PUBLIC        P5
  D:00E8H         PUBLIC        P6
  B:00A8H.7       PUBLIC        EA
  D:00F8H         PUBLIC        P7
BL51 BANKED LINKER/LOCATER V6.22.2.0                                                  01/08/2024  18:39:23  PAGE 4


  X:0001H         PUBLIC        rollL
  X:0002H         PUBLIC        shake_flag
  D:00A8H         PUBLIC        IE
  C:0F2EH         PUBLIC        Uart_IMU_IRQHander
  X:0003H         PUBLIC        acce_YH
  X:0004H         PUBLIC        acce_ZH
  B:0020H.0       PUBLIC        rec_accel_flag
  X:0005H         PUBLIC        acce_YL
  X:0006H         PUBLIC        acce_ZL
  D:00B8H         PUBLIC        IP
  B:0098H.0       PUBLIC        RI
  B:0020H.1       PUBLIC        pass_through_flag
  B:0020H.2       PUBLIC        rec_angle_flag
  D:00D8H         PUBLIC        CCON
  B:0020H.3       PUBLIC        random_dir
  C:0FF4H         PUBLIC        main
  D:000BH         PUBLIC        mode
  D:000CH         PUBLIC        current_direction
  D:0099H         PUBLIC        SBUF
  C:1392H         PUBLIC        Timer0_100us_IRQHander
  D:0098H         PUBLIC        SCON
  D:0088H         PUBLIC        TCON
  X:0007H         PUBLIC        roll
  X:000BH         PUBLIC        acce_X
  X:000FH         PUBLIC        acce_Y
  X:0013H         PUBLIC        acce_Z
  D:000DH         PUBLIC        timer0_100us_cnt
  D:000FH         PUBLIC        pass_dir
  B:0020H.4       PUBLIC        get_direction_flag
  D:00D0H         PUBLIC        PSW
  D:0010H         PUBLIC        M0
  D:0018H         PUBLIC        M1
  -------         PROC          MAIN
  C:0FF4H         LINE#         34
  C:0FF4H         LINE#         35
  C:0FF4H         LINE#         36
  C:0FF9H         LINE#         37
  C:0FFEH         LINE#         38
  C:1003H         LINE#         40
  C:1006H         LINE#         41
  C:1009H         LINE#         42
  C:100BH         LINE#         44
  C:100BH         LINE#         45
  C:100BH         LINE#         46
  C:100FH         LINE#         47
  C:100FH         LINE#         48
  C:1015H         LINE#         49
  C:1018H         LINE#         51
  C:101BH         LINE#         52
  C:101EH         LINE#         54
  C:1024H         LINE#         55
  C:1027H         LINE#         57
  C:1032H         LINE#         58
  C:1032H         LINE#         59
  C:1035H         LINE#         60
  C:1038H         LINE#         61
  C:1038H         LINE#         62
BL51 BANKED LINKER/LOCATER V6.22.2.0                                                  01/08/2024  18:39:23  PAGE 5


  C:1038H         LINE#         63
  C:103AH         LINE#         64
  C:1040H         LINE#         65
  C:1040H         LINE#         66
  C:104BH         LINE#         67
  C:104BH         LINE#         68
  C:1056H         LINE#         69
  C:1058H         LINE#         70
  C:1064H         LINE#         71
  C:1064H         LINE#         72
  C:1071H         LINE#         73
  C:1071H         LINE#         75
  C:1077H         LINE#         76
  C:107AH         LINE#         78
  C:107DH         LINE#         79
  C:1080H         LINE#         81
  C:1086H         LINE#         82
  C:1089H         LINE#         84
  C:1094H         LINE#         85
  C:1094H         LINE#         86
  C:1097H         LINE#         87
  C:109AH         LINE#         88
  C:109FH         LINE#         89
  C:109FH         LINE#         90
  C:109FH         LINE#         92
  C:10A2H         LINE#         93
  C:10A4H         LINE#         94
  -------         ENDPROC       MAIN
  -------         PROC          TIMER0_100US_IRQHANDER
  C:1392H         LINE#         99
  C:13AFH         LINE#         102
  C:13B2H         LINE#         103
  C:13BAH         LINE#         104
  -------         ENDPROC       TIMER0_100US_IRQHANDER
  -------         PROC          UART_IMU_IRQHANDER
  -------         DO            
  D:0008H         SYMBOL        rec_state
  D:0007H         SYMBOL        rec_data
  -------         ENDDO         
  C:0F2EH         LINE#         108
  C:0F41H         LINE#         113
  C:0F43H         LINE#         114
  C:0F72H         LINE#         115
  C:0F72H         LINE#         116
  C:0F72H         LINE#         117
  C:0F7AH         LINE#         118
  C:0F7CH         LINE#         119
  C:0F7CH         LINE#         120
  C:0F89H         LINE#         121
  C:0F94H         LINE#         124
  C:0F94H         LINE#         125
  C:0F99H         LINE#         126
  C:0F9CH         LINE#         127
  C:0F9EH         LINE#         128
  C:0F9EH         LINE#         129
  C:0FA3H         LINE#         130
  C:0FA6H         LINE#         131
BL51 BANKED LINKER/LOCATER V6.22.2.0                                                  01/08/2024  18:39:23  PAGE 6


  C:0FA8H         LINE#         132
  C:0FAAH         LINE#         133
  C:0FAAH         LINE#         134
  C:0FADH         LINE#         135
  C:0FAFH         LINE#         136
  C:0FAFH         LINE#         137
  C:0FB2H         LINE#         138
  C:0FB4H         LINE#         139
  C:0FB4H         LINE#         140
  C:0FB9H         LINE#         141
  C:0FBCH         LINE#         142
  C:0FBEH         LINE#         143
  C:0FBEH         LINE#         144
  C:0FC3H         LINE#         145
  C:0FC6H         LINE#         146
  C:0FC8H         LINE#         147
  C:0FC8H         LINE#         148
  C:0FCDH         LINE#         149
  C:0FD0H         LINE#         150
  C:0FD2H         LINE#         151
  C:0FD2H         LINE#         152
  C:0FD7H         LINE#         153
  C:0FDAH         LINE#         154
  C:0FDCH         LINE#         155
  C:0FDEH         LINE#         156
  C:0FDEH         LINE#         157
  C:0FE1H         LINE#         158
  C:0FE1H         LINE#         159
  C:0FE1H         LINE#         160
  C:0FE3H         LINE#         161
  -------         ENDPROC       UART_IMU_IRQHANDER
  -------         ENDMOD        MAIN

  -------         MODULE        MATRIX
  C:0000H         SYMBOL        _ICE_DUMMY_
  C:0C84H         PUBLIC        PassThrough
  D:0080H         PUBLIC        P0
  D:0090H         PUBLIC        P1
  D:00A0H         PUBLIC        P2
  C:14C2H         PUBLIC        _Matrix_fill
  D:00B0H         PUBLIC        P3
  D:00C0H         PUBLIC        P4
  D:00C8H         PUBLIC        P5
  D:00E8H         PUBLIC        P6
  D:00F8H         PUBLIC        P7
  C:0D6FH         PUBLIC        _Can_GORIGHT
  D:00A8H         PUBLIC        IE
  D:00B8H         PUBLIC        IP
  D:00D8H         PUBLIC        CCON
  C:145DH         PUBLIC        _is_a_sand
  D:0098H         PUBLIC        SCON
  D:0088H         PUBLIC        TCON
  C:0E4FH         PUBLIC        _Can_GOLEFT
  C:0637H         PUBLIC        Matrix_Update
  C:0003H         SYMBOL        _?ix1000
  C:0A38H         PUBLIC        _Can_GODOWN
  C:134AH         PUBLIC        _Matrix_is_empty
BL51 BANKED LINKER/LOCATER V6.22.2.0                                                  01/08/2024  18:39:23  PAGE 7


  C:1490H         PUBLIC        _Matrix_clear
  C:13D5H         PUBLIC        _XY_Inv_Transfor
  D:00D0H         PUBLIC        PSW
  C:10B3H         PUBLIC        _?Set_a_point
  -------         PROC          _XY_INV_TRANSFOR
  D:0028H         SYMBOL        x0
  D:002BH         SYMBOL        y0
  D:002EH         SYMBOL        x1
  D:002FH         SYMBOL        y1
  C:13D5H         LINE#         13
  C:13DBH         LINE#         14
  C:13DBH         LINE#         15
  C:13E6H         LINE#         16
  C:13E6H         LINE#         17
  C:13EEH         LINE#         18
  C:13F6H         LINE#         19
  C:13F8H         LINE#         21
  C:13F8H         LINE#         22
  C:1406H         LINE#         23
  C:1415H         LINE#         24
  C:1415H         LINE#         25
  -------         ENDPROC       _XY_INV_TRANSFOR
  -------         PROC          _MATRIX_CLEAR
  D:0007H         SYMBOL        matrixID
  -------         DO            
  D:0006H         SYMBOL        i
  -------         ENDDO         
  C:1490H         LINE#         29
  C:1490H         LINE#         30
  C:1490H         LINE#         31
  C:1490H         LINE#         32
  C:1497H         LINE#         33
  C:1497H         LINE#         34
  C:1497H         LINE#         35
  C:14A3H         LINE#         36
  C:14A3H         LINE#         37
  C:14A9H         LINE#         38
  C:14ACH         LINE#         39
  C:14ACH         LINE#         40
  C:14ACH         LINE#         41
  C:14B8H         LINE#         42
  C:14B8H         LINE#         43
  C:14BEH         LINE#         44
  C:14C1H         LINE#         45
  C:14C1H         LINE#         46
  C:14C1H         LINE#         47
  -------         ENDPROC       _MATRIX_CLEAR
  -------         PROC          _MATRIX_FILL
  D:0007H         SYMBOL        matrixID
  -------         DO            
  D:0006H         SYMBOL        i
  -------         ENDDO         
  C:14C2H         LINE#         50
  C:14C2H         LINE#         51
  C:14C2H         LINE#         52
  C:14C2H         LINE#         53
  C:14C9H         LINE#         54
BL51 BANKED LINKER/LOCATER V6.22.2.0                                                  01/08/2024  18:39:23  PAGE 8


  C:14C9H         LINE#         55
  C:14C9H         LINE#         56
  C:14D5H         LINE#         57
  C:14DEH         LINE#         58
  C:14DEH         LINE#         59
  C:14DEH         LINE#         60
  C:14EAH         LINE#         61
  C:14F3H         LINE#         62
  C:14F3H         LINE#         63
  C:14F3H         LINE#         64
  C:14F3H         LINE#         65
  C:14F3H         LINE#         66
  -------         ENDPROC       _MATRIX_FILL
  -------         PROC          _MATRIX_IS_EMPTY
  D:0031H         SYMBOL        matrix
  -------         DO            
  D:0034H         SYMBOL        zero_matrix
  -------         ENDDO         
  C:134AH         LINE#         69
  C:1350H         LINE#         70
  C:1350H         LINE#         71
  C:1363H         LINE#         72
  C:1372H         LINE#         73
  C:1391H         LINE#         74
  -------         ENDPROC       _MATRIX_IS_EMPTY
  C:10A7H         SYMBOL        L?0182
  -------         PROC          L?0181
  -------         ENDPROC       L?0181
  C:10A7H         SYMBOL        L?0182
  -------         PROC          _?SET_A_POINT
  i:0001H         SYMBOL        matrixID
  i:0002H         SYMBOL        row
  i:0003H         SYMBOL        col
  i:0004H         SYMBOL        state
  -------         DO            
  i:0000H         SYMBOL        shift
  -------         ENDDO         
  C:10B3H         LINE#         77
  C:10C7H         LINE#         79
  C:10D3H         LINE#         80
  C:10DDH         LINE#         81
  C:10DDH         LINE#         82
  C:10DDH         LINE#         83
  C:10FDH         LINE#         84
  C:1115H         LINE#         85
  C:1117H         LINE#         86
  C:1117H         LINE#         87
  C:1137H         LINE#         88
  C:1153H         LINE#         89
  C:1153H         LINE#         90
  C:1153H         LINE#         91
  C:1153H         LINE#         92
  C:1153H         LINE#         93
  -------         ENDPROC       _?SET_A_POINT
  C:1457H         SYMBOL        L?0184
  -------         PROC          L?0183
  -------         ENDPROC       L?0183
BL51 BANKED LINKER/LOCATER V6.22.2.0                                                  01/08/2024  18:39:23  PAGE 9


  C:1457H         SYMBOL        L?0184
  -------         PROC          _IS_A_SAND
  D:0007H         SYMBOL        matrixID
  D:0005H         SYMBOL        row
  D:0003H         SYMBOL        col
  -------         DO            
  D:0006H         SYMBOL        shift
  -------         ENDDO         
  C:145DH         LINE#         96
  C:145DH         LINE#         97
  C:145DH         LINE#         98
  C:1462H         LINE#         100
  C:1469H         LINE#         101
  C:1469H         LINE#         102
  C:1469H         LINE#         103
  C:147AH         LINE#         104
  C:147AH         LINE#         105
  C:148DH         LINE#         106
  C:148DH         LINE#         107
  C:148FH         LINE#         108
  C:148FH         LINE#         109
  -------         ENDPROC       _IS_A_SAND
  -------         PROC          _CAN_GODOWN
  D:0007H         SYMBOL        matrixID
  D:0005H         SYMBOL        row
  D:0006H         SYMBOL        col
  D:002BH         SYMBOL        target_row
  D:002EH         SYMBOL        target_col
  C:0A38H         LINE#         112
  C:0A3AH         LINE#         113
  C:0A3AH         LINE#         115
  C:0A4AH         LINE#         116
  C:0A4AH         LINE#         117
  C:0A4AH         LINE#         118
  C:0A4CH         LINE#         119
  C:0A4CH         LINE#         120
  C:0A4EH         LINE#         121
  C:0A4EH         LINE#         122
  C:0A59H         LINE#         123
  C:0A5BH         LINE#         124
  C:0A5DH         LINE#         125
  C:0A5DH         LINE#         126
  C:0A68H         LINE#         127
  C:0A6AH         LINE#         128
  C:0A6CH         LINE#         129
  C:0A6CH         LINE#         130
  C:0A77H         LINE#         131
  C:0A82H         LINE#         132
  C:0A82H         LINE#         133
  C:0A82H         LINE#         134
  C:0A82H         LINE#         135
  C:0A82H         LINE#         136
  C:0A8CH         LINE#         137
  C:0A8CH         LINE#         138
  C:0A8CH         LINE#         140
  C:0AD4H         LINE#         141
  C:0AD4H         LINE#         143
BL51 BANKED LINKER/LOCATER V6.22.2.0                                                  01/08/2024  18:39:23  PAGE 10


  C:0AEFH         LINE#         144
  C:0AEFH         LINE#         146
  C:0AF2H         LINE#         148
  C:0AF2H         LINE#         150
  C:0B3AH         LINE#         151
  C:0B3AH         LINE#         153
  C:0B5CH         LINE#         154
  C:0B5CH         LINE#         156
  C:0B5FH         LINE#         157
  C:0B5FH         LINE#         158
  C:0B61H         LINE#         159
  C:0B61H         LINE#         160
  -------         ENDPROC       _CAN_GODOWN
  -------         PROC          _CAN_GOLEFT
  D:0007H         SYMBOL        matrixID
  D:0005H         SYMBOL        row
  D:0006H         SYMBOL        col
  D:002BH         SYMBOL        target_row
  D:002EH         SYMBOL        target_col
  C:0E4FH         LINE#         165
  C:0E51H         LINE#         166
  C:0E51H         LINE#         168
  C:0E61H         LINE#         169
  C:0E61H         LINE#         170
  C:0E61H         LINE#         171
  C:0E6BH         LINE#         172
  C:0E6DH         LINE#         173
  C:0E6FH         LINE#         174
  C:0E6FH         LINE#         175
  C:0E71H         LINE#         176
  C:0E71H         LINE#         177
  C:0E73H         LINE#         178
  C:0E73H         LINE#         179
  C:0E7EH         LINE#         180
  C:0E85H         LINE#         181
  C:0E87H         LINE#         182
  C:0E87H         LINE#         183
  C:0E91H         LINE#         184
  C:0E9CH         LINE#         185
  C:0E9CH         LINE#         186
  C:0E9CH         LINE#         187
  C:0E9CH         LINE#         188
  C:0E9CH         LINE#         191
  C:0EE4H         LINE#         192
  C:0EE4H         LINE#         193
  C:0EEBH         LINE#         194
  C:0EEBH         LINE#         195
  C:0EEBH         LINE#         197
  C:0F06H         LINE#         199
  C:0F06H         LINE#         201
  C:0F28H         LINE#         202
  C:0F28H         LINE#         203
  C:0F2BH         LINE#         204
  C:0F2BH         LINE#         205
  C:0F2BH         LINE#         206
  C:0F2DH         LINE#         207
  -------         ENDPROC       _CAN_GOLEFT
BL51 BANKED LINKER/LOCATER V6.22.2.0                                                  01/08/2024  18:39:23  PAGE 11


  -------         PROC          _CAN_GORIGHT
  D:0007H         SYMBOL        matrixID
  D:0005H         SYMBOL        row
  D:0006H         SYMBOL        col
  D:002BH         SYMBOL        target_row
  D:002EH         SYMBOL        target_col
  C:0D6FH         LINE#         211
  C:0D71H         LINE#         212
  C:0D71H         LINE#         214
  C:0D81H         LINE#         215
  C:0D81H         LINE#         216
  C:0D81H         LINE#         218
  C:0D83H         LINE#         219
  C:0D83H         LINE#         220
  C:0D85H         LINE#         221
  C:0D85H         LINE#         223
  C:0D8FH         LINE#         224
  C:0D91H         LINE#         225
  C:0D93H         LINE#         226
  C:0D93H         LINE#         228
  C:0D9DH         LINE#         229
  C:0DA5H         LINE#         230
  C:0DA7H         LINE#         231
  C:0DA7H         LINE#         233
  C:0DB2H         LINE#         234
  C:0DBCH         LINE#         235
  C:0DBCH         LINE#         236
  C:0DBCH         LINE#         237
  C:0DBCH         LINE#         238
  C:0DBCH         LINE#         240
  C:0E04H         LINE#         241
  C:0E04H         LINE#         242
  C:0E0BH         LINE#         243
  C:0E0BH         LINE#         244
  C:0E0BH         LINE#         246
  C:0E27H         LINE#         248
  C:0E27H         LINE#         250
  C:0E49H         LINE#         251
  C:0E49H         LINE#         252
  C:0E4CH         LINE#         253
  C:0E4CH         LINE#         254
  C:0E4CH         LINE#         256
  C:0E4EH         LINE#         257
  -------         ENDPROC       _CAN_GORIGHT
  -------         PROC          PASSTHROUGH
  C:0C84H         LINE#         262
  C:0C84H         LINE#         263
  C:0C84H         LINE#         265
  C:0C8AH         LINE#         266
  C:0C8AH         LINE#         267
  C:0C8EH         LINE#         268
  C:0C8EH         LINE#         271
  C:0CAAH         LINE#         272
  C:0CAAH         LINE#         274
  C:0CB6H         LINE#         275
  C:0CC0H         LINE#         276
  C:0CC0H         LINE#         277
BL51 BANKED LINKER/LOCATER V6.22.2.0                                                  01/08/2024  18:39:23  PAGE 12


  C:0CC3H         LINE#         278
  C:0CCCH         LINE#         279
  C:0CCCH         LINE#         280
  C:0CE8H         LINE#         281
  C:0CE8H         LINE#         283
  C:0CF5H         LINE#         284
  C:0CFFH         LINE#         285
  C:0CFFH         LINE#         286
  C:0CFFH         LINE#         287
  C:0D01H         LINE#         288
  C:0D07H         LINE#         289
  C:0D07H         LINE#         290
  C:0D0BH         LINE#         291
  C:0D0BH         LINE#         293
  C:0D21H         LINE#         294
  C:0D21H         LINE#         296
  C:0D2EH         LINE#         297
  C:0D3AH         LINE#         298
  C:0D3AH         LINE#         299
  C:0D3CH         LINE#         301
  C:0D3CH         LINE#         303
  C:0D53H         LINE#         304
  C:0D53H         LINE#         306
  C:0D5FH         LINE#         307
  C:0D6EH         LINE#         308
  C:0D6EH         LINE#         309
  C:0D6EH         LINE#         310
  C:0D6EH         LINE#         311
  -------         ENDPROC       PASSTHROUGH
  -------         PROC          MATRIX_UPDATE
  -------         DO            
  D:004BH         SYMBOL        current_row
  D:004CH         SYMBOL        current_col
  D:0021H         SYMBOL        target_row
  D:0022H         SYMBOL        target_col
  D:0023H         SYMBOL        target_left_row
  D:0024H         SYMBOL        target_left_col
  D:0025H         SYMBOL        target_right_row
  D:0026H         SYMBOL        target_right_col
  D:0027H         SYMBOL        can_goleft_flag
  D:0004H         SYMBOL        can_goright_flag
  D:004DH         SYMBOL        x_slant
  D:004EH         SYMBOL        y_slant
  D:004FH         SYMBOL        M0_M1_flag
  D:0050H         SYMBOL        transfor_flag
  -------         ENDDO         
  C:0637H         LINE#         315
  C:0637H         LINE#         316
  C:0637H         LINE#         321
  C:063BH         LINE#         326
  C:0657H         LINE#         328
  C:065EH         LINE#         329
  C:065EH         LINE#         331
  C:066CH         LINE#         332
  C:066CH         LINE#         333
  C:068AH         LINE#         334
  C:068AH         LINE#         336
BL51 BANKED LINKER/LOCATER V6.22.2.0                                                  01/08/2024  18:39:23  PAGE 13


  C:0698H         LINE#         337
  C:06A2H         LINE#         338
  C:06A5H         LINE#         340
  C:06A5H         LINE#         341
  C:06C2H         LINE#         342
  C:06DFH         LINE#         343
  C:06E6H         LINE#         344
  C:06E6H         LINE#         345
  C:06E9H         LINE#         346
  C:06E9H         LINE#         347
  C:06F7H         LINE#         348
  C:0701H         LINE#         349
  C:0703H         LINE#         351
  C:0703H         LINE#         352
  C:0711H         LINE#         353
  C:071BH         LINE#         354
  C:071BH         LINE#         355
  C:071DH         LINE#         356
  C:0720H         LINE#         357
  C:0720H         LINE#         358
  C:072EH         LINE#         359
  C:0738H         LINE#         360
  C:073AH         LINE#         361
  C:0741H         LINE#         362
  C:0741H         LINE#         363
  C:074FH         LINE#         364
  C:075BH         LINE#         365
  C:075BH         LINE#         366
  C:075BH         LINE#         367
  C:075BH         LINE#         368
  C:075EH         LINE#         370
  C:075EH         LINE#         372
  C:076DH         LINE#         373
  C:076DH         LINE#         375
  C:078BH         LINE#         376
  C:078BH         LINE#         378
  C:078EH         LINE#         379
  C:079AH         LINE#         380
  C:079DH         LINE#         382
  C:079DH         LINE#         383
  C:07BAH         LINE#         384
  C:07D7H         LINE#         386
  C:07DEH         LINE#         387
  C:07DEH         LINE#         388
  C:07E1H         LINE#         389
  C:07E1H         LINE#         390
  C:07E4H         LINE#         391
  C:07EEH         LINE#         392
  C:07F0H         LINE#         394
  C:07F0H         LINE#         395
  C:07F3H         LINE#         396
  C:07FFH         LINE#         397
  C:07FFH         LINE#         398
  C:0801H         LINE#         399
  C:0804H         LINE#         400
  C:0804H         LINE#         401
  C:0807H         LINE#         402
BL51 BANKED LINKER/LOCATER V6.22.2.0                                                  01/08/2024  18:39:23  PAGE 14


  C:0813H         LINE#         403
  C:0815H         LINE#         404
  C:0819H         LINE#         405
  C:0819H         LINE#         406
  C:081CH         LINE#         407
  C:082BH         LINE#         408
  C:082BH         LINE#         409
  C:082BH         LINE#         410
  C:082BH         LINE#         411
  C:082BH         LINE#         413
  C:0830H         LINE#         414
  C:0830H         LINE#         415
  C:0830H         LINE#         416
  C:0833H         LINE#         417
  C:0835H         LINE#         418
  C:0843H         LINE#         419
  C:0843H         LINE#         420
  C:0857H         LINE#         421
  C:0857H         LINE#         422
  C:0857H         LINE#         423
  C:0857H         LINE#         424
  C:0857H         LINE#         425
  C:0859H         LINE#         426
  C:0864H         LINE#         427
  C:0864H         LINE#         428
  C:0870H         LINE#         429
  C:0870H         LINE#         430
  C:0872H         LINE#         431
  C:0875H         LINE#         432
  C:0875H         LINE#         433
  C:0876H         LINE#         435
  C:0876H         LINE#         436
  C:0882H         LINE#         437
  C:0885H         LINE#         438
  C:0887H         LINE#         439
  C:0887H         LINE#         440
  C:0888H         LINE#         442
  C:0888H         LINE#         443
  C:0888H         LINE#         444
  C:088BH         LINE#         445
  C:0899H         LINE#         446
  C:08A2H         LINE#         447
  C:08A2H         LINE#         448
  C:08B0H         LINE#         449
  C:08B9H         LINE#         450
  C:08B9H         LINE#         451
  C:08C5H         LINE#         452
  C:08C5H         LINE#         453
  C:08C5H         LINE#         454
  C:08C5H         LINE#         455
  C:08C5H         LINE#         457
  -------         ENDPROC       MATRIX_UPDATE
  -------         ENDMOD        MATRIX

  -------         MODULE        74HC595
  C:0000H         SYMBOL        _ICE_DUMMY_
  D:0080H         PUBLIC        P0
BL51 BANKED LINKER/LOCATER V6.22.2.0                                                  01/08/2024  18:39:23  PAGE 15


  D:0090H         PUBLIC        P1
  D:00A0H         PUBLIC        P2
  D:00B0H         PUBLIC        P3
  D:00C0H         PUBLIC        P4
  D:00C8H         PUBLIC        P5
  D:00E8H         PUBLIC        P6
  D:00F8H         PUBLIC        P7
  D:00A8H         PUBLIC        IE
  D:00B8H         PUBLIC        IP
  C:1416H         PUBLIC        Display_Update
  D:00D8H         PUBLIC        CCON
  B:00B0H.2       PUBLIC        SHCP
  D:0098H         PUBLIC        SCON
  D:0088H         PUBLIC        TCON
  C:1252H         PUBLIC        _write_data_col
  B:0090H.3       PUBLIC        M0CDS
  B:0090H.1       PUBLIC        M1CDS
  D:003CH         PUBLIC        SEL
  C:12FEH         PUBLIC        _write_data_row
  B:0090H.2       PUBLIC        M0RDS
  B:0090H.0       PUBLIC        M1RDS
  B:0090H.4       PUBLIC        STCP0
  B:0090H.5       PUBLIC        STCP1
  B:00C8H.5       PUBLIC        STCP2
  B:00B0H.3       PUBLIC        STCP3
  D:00D0H         PUBLIC        PSW
  -------         PROC          _WRITE_DATA_ROW
  D:0032H         SYMBOL        byte
  -------         DO            
  D:0033H         SYMBOL        i
  -------         ENDDO         
  C:12FEH         LINE#         9
  C:1300H         LINE#         10
  C:1300H         LINE#         11
  C:1303H         LINE#         13
  C:1310H         LINE#         14
  C:1310H         LINE#         15
  C:131CH         LINE#         16
  C:131EH         LINE#         17
  C:1324H         LINE#         18
  C:1326H         LINE#         19
  C:132DH         LINE#         20
  C:132FH         LINE#         21
  C:1336H         LINE#         22
  C:133AH         LINE#         23
  C:133CH         LINE#         24
  C:133EH         LINE#         25
  C:1345H         LINE#         26
  C:1347H         LINE#         27
  C:1349H         LINE#         28
  -------         ENDPROC       _WRITE_DATA_ROW
  -------         PROC          _WRITE_DATA_COL
  D:0032H         SYMBOL        M0byte
  D:0033H         SYMBOL        M1byte
  -------         DO            
  D:0034H         SYMBOL        i
  -------         ENDDO         
BL51 BANKED LINKER/LOCATER V6.22.2.0                                                  01/08/2024  18:39:23  PAGE 16


  C:1252H         LINE#         33
  C:1256H         LINE#         34
  C:1256H         LINE#         35
  C:1259H         LINE#         36
  C:1266H         LINE#         37
  C:1266H         LINE#         38
  C:1272H         LINE#         39
  C:1278H         LINE#         40
  C:1284H         LINE#         41
  C:128AH         LINE#         42
  C:128CH         LINE#         43
  C:1293H         LINE#         44
  C:1295H         LINE#         45
  C:129CH         LINE#         46
  C:12A0H         LINE#         47
  C:12A2H         LINE#         48
  C:12A4H         LINE#         49
  C:12ABH         LINE#         50
  C:12ADH         LINE#         51
  C:12AFH         LINE#         52
  -------         ENDPROC       _WRITE_DATA_COL
  -------         PROC          DISPLAY_UPDATE
  -------         DO            
  D:0031H         SYMBOL        i
  -------         ENDDO         
  C:1416H         LINE#         55
  C:1416H         LINE#         56
  C:1416H         LINE#         57
  C:1419H         LINE#         58
  C:1426H         LINE#         59
  C:1426H         LINE#         60
  C:1430H         LINE#         61
  C:1443H         LINE#         62
  C:144AH         LINE#         63
  C:1451H         LINE#         64
  C:1455H         LINE#         65
  -------         ENDPROC       DISPLAY_UPDATE
  -------         ENDMOD        74HC595

  -------         MODULE        IMU
  C:0000H         SYMBOL        _ICE_DUMMY_
  D:0080H         PUBLIC        P0
  D:0090H         PUBLIC        P1
  D:00A0H         PUBLIC        P2
  D:00B0H         PUBLIC        P3
  D:00C0H         PUBLIC        P4
  D:00C8H         PUBLIC        P5
  D:00E8H         PUBLIC        P6
  D:00F8H         PUBLIC        P7
  D:00A2H         PUBLIC        P_SW1
  D:00A8H         PUBLIC        IE
  C:11E6H         PUBLIC        Acceleration_Action
  C:14F4H         PUBLIC        Uart_Init
  B:00A8H.4       PUBLIC        ES
  D:00B8H         PUBLIC        IP
  D:00D8H         PUBLIC        CCON
  C:0B62H         PUBLIC        Get_Direction
BL51 BANKED LINKER/LOCATER V6.22.2.0                                                  01/08/2024  18:39:23  PAGE 17


  D:0098H         PUBLIC        SCON
  D:0088H         PUBLIC        TCON
  D:008EH         PUBLIC        AUXR
  D:00D6H         PUBLIC        T2H
  D:00D7H         PUBLIC        T2L
  C:08C6H         PUBLIC        Get_Acceleration
  D:00D0H         PUBLIC        PSW
  -------         PROC          UART_INIT
  C:14F4H         LINE#         7
  C:14F4H         LINE#         8
  C:14F4H         LINE#         9
  C:14F7H         LINE#         10
  C:14FAH         LINE#         11
  C:14FDH         LINE#         12
  C:1500H         LINE#         13
  C:1503H         LINE#         14
  C:1506H         LINE#         15
  C:1509H         LINE#         16
  C:150BH         LINE#         17
  C:150EH         LINE#         18
  -------         ENDPROC       UART_INIT
  -------         PROC          GET_DIRECTION
  C:0B62H         LINE#         22
  C:0B62H         LINE#         23
  C:0B62H         LINE#         27
  C:0B96H         LINE#         29
  C:0BD2H         LINE#         30
  C:0C0DH         LINE#         31
  C:0C48H         LINE#         32
  C:0C81H         LINE#         33
  C:0C83H         LINE#         35
  -------         ENDPROC       GET_DIRECTION
  -------         PROC          GET_ACCELERATION
  C:08C6H         LINE#         38
  C:08C6H         LINE#         39
  C:08C6H         LINE#         40
  C:08D5H         LINE#         41
  C:08D5H         LINE#         42
  C:08EBH         LINE#         43
  C:0912H         LINE#         44
  C:094BH         LINE#         45
  C:094BH         LINE#         46
  C:0951H         LINE#         47
  C:0954H         LINE#         48
  C:097AH         LINE#         49
  C:097AH         LINE#         50
  C:097FH         LINE#         51
  C:097FH         LINE#         53
  C:0982H         LINE#         54
  C:0991H         LINE#         55
  C:0991H         LINE#         56
  C:09A7H         LINE#         57
  C:09CEH         LINE#         58
  C:0A06H         LINE#         59
  C:0A0EH         LINE#         60
  C:0A2FH         LINE#         61
  C:0A35H         LINE#         62
BL51 BANKED LINKER/LOCATER V6.22.2.0                                                  01/08/2024  18:39:23  PAGE 18


  C:0A35H         LINE#         63
  C:0A37H         LINE#         64
  -------         ENDPROC       GET_ACCELERATION
  -------         PROC          ACCELERATION_ACTION
  -------         DO            
  D:0044H         SYMBOL        pre_cnt
  D:0046H         SYMBOL        current_cnt
  D:0048H         SYMBOL        state
  D:0049H         SYMBOL        time
  -------         ENDDO         
  C:11E6H         LINE#         67
  C:11E6H         LINE#         68
  C:11E6H         LINE#         74
  C:11ECH         LINE#         77
  C:121BH         LINE#         78
  C:1221H         LINE#         79
  C:1229H         LINE#         80
  C:1229H         LINE#         81
  C:1229H         LINE#         82
  C:122FH         LINE#         83
  C:122FH         LINE#         84
  C:1231H         LINE#         86
  C:1233H         LINE#         87
  C:1236H         LINE#         88
  C:1237H         LINE#         89
  C:1237H         LINE#         90
  C:1239H         LINE#         91
  C:1239H         LINE#         92
  C:1244H         LINE#         93
  C:1244H         LINE#         94
  C:1249H         LINE#         95
  C:124BH         LINE#         96
  C:124DH         LINE#         97
  C:1251H         LINE#         98
  C:1251H         LINE#         99
  C:1251H         LINE#         100
  C:1251H         LINE#         101
  C:1251H         LINE#         102
  C:1251H         LINE#         103
  -------         ENDPROC       ACCELERATION_ACTION
  -------         ENDMOD        IMU

  -------         MODULE        TIMER
  C:0000H         SYMBOL        _ICE_DUMMY_
  D:0080H         PUBLIC        P0
  D:0090H         PUBLIC        P1
  D:00A0H         PUBLIC        P2
  D:00B0H         PUBLIC        P3
  D:00C0H         PUBLIC        P4
  D:00C8H         PUBLIC        P5
  D:00E8H         PUBLIC        P6
  D:00F8H         PUBLIC        P7
  D:00A8H         PUBLIC        IE
  D:00B8H         PUBLIC        IP
  D:00D8H         PUBLIC        CCON
  C:000EH         PUBLIC        Timer0_Init
  D:0098H         PUBLIC        SCON
BL51 BANKED LINKER/LOCATER V6.22.2.0                                                  01/08/2024  18:39:23  PAGE 19


  D:0089H         PUBLIC        TMOD
  D:0088H         PUBLIC        TCON
  D:008EH         PUBLIC        AUXR
  B:00A8H.1       PUBLIC        ET0
  B:0088H.5       PUBLIC        TF0
  D:008CH         PUBLIC        TH0
  D:008AH         PUBLIC        TL0
  B:00B8H.1       PUBLIC        PT0
  B:0088H.4       PUBLIC        TR0
  C:150FH         PUBLIC        _delay_us
  D:00D0H         PUBLIC        PSW
  -------         PROC          TIMER0_INIT
  C:000EH         LINE#         8
  C:000EH         LINE#         9
  C:000EH         LINE#         10
  C:0011H         LINE#         11
  C:0014H         LINE#         12
  C:0017H         LINE#         13
  C:001AH         LINE#         14
  C:001CH         LINE#         15
  C:001EH         LINE#         16
  C:0020H         LINE#         17
  C:0022H         LINE#         18
  -------         ENDPROC       TIMER0_INIT
  -------         PROC          _DELAY_US
  D:0006H         SYMBOL        us
  C:150FH         LINE#         21
  C:150FH         LINE#         22
  C:150FH         LINE#         23
  C:1519H         LINE#         24
  -------         ENDPROC       _DELAY_US
  -------         ENDMOD        TIMER

  -------         MODULE        ?C?FPMUL
  C:0026H         PUBLIC        ?C?FPMUL
  -------         ENDMOD        ?C?FPMUL

  -------         MODULE        ?C?FPDIV
  C:012FH         PUBLIC        ?C?FPDIV
  -------         ENDMOD        ?C?FPDIV

  -------         MODULE        ?C?FPCMP
  C:01CEH         PUBLIC        ?C?FPCMP
  C:01CCH         PUBLIC        ?C?FPCMP3
  -------         ENDMOD        ?C?FPCMP

  -------         MODULE        ?C?FCAST
  C:024FH         PUBLIC        ?C?FCASTC
  C:024AH         PUBLIC        ?C?FCASTI
  C:0245H         PUBLIC        ?C?FCASTL
  -------         ENDMOD        ?C?FCAST

  -------         MODULE        ?C?CASTF
  C:0283H         PUBLIC        ?C?CASTF
  -------         ENDMOD        ?C?CASTF

  -------         MODULE        ?C?COPY
BL51 BANKED LINKER/LOCATER V6.22.2.0                                                  01/08/2024  18:39:23  PAGE 20


  C:03D4H         PUBLIC        ?C?COPY
  -------         ENDMOD        ?C?COPY

  -------         MODULE        ?C?SCDIV
  C:03FAH         PUBLIC        ?C?SCDIV
  -------         ENDMOD        ?C?SCDIV

  -------         MODULE        ?C?CLDPTR
  C:041CH         PUBLIC        ?C?CLDPTR
  -------         ENDMOD        ?C?CLDPTR

  -------         MODULE        ?C?CSTPTR
  C:0435H         PUBLIC        ?C?CSTPTR
  -------         ENDMOD        ?C?CSTPTR

  -------         MODULE        ?C?LNEG
  C:0447H         PUBLIC        ?C?LNEG
  -------         ENDMOD        ?C?LNEG

  -------         MODULE        ?C?LSTXDATA
  C:0455H         PUBLIC        ?C?LSTXDATA
  -------         ENDMOD        ?C?LSTXDATA

  -------         MODULE        ?C_IBP
  D:0051H         PUBLIC        ?C_IBP
  -------         ENDMOD        ?C_IBP

  -------         MODULE        ?C?MEMCMP
  C:05E7H         PUBLIC        ?C?MEMCMP
  -------         ENDMOD        ?C?MEMCMP

  -------         MODULE        ?C?MEMSET
  C:060BH         PUBLIC        ?C?MEMSET
  -------         ENDMOD        ?C?MEMSET

Program Size: data=82.5 xdata=23 code=5402
LINK/LOCATE RUN COMPLETE.  0 WARNING(S),  0 ERROR(S)
