C51 COMPILER V9.59.0.0   MAIN                                                              01/08/2024 18:39:23 PAGE 1   


C51 COMPILER V9.59.0.0, COMPILATION OF MODULE MAIN
OBJECT MODULE PLACED IN ..\Object\main.obj
COMPILER INVOKED BY: D:\Keil_v5\C51\BIN\C51.EXE ..\User\main.c OPTIMIZE(8,SPEED) BROWSE INCDIR(..\User;..\Hardware;..\Ap
                    -plication) DEBUG OBJECTEXTEND PRINT(.\main.lst) OBJECT(..\Object\main.obj)

line level    source

   1          #include "main.h"
   2          #include "Matrix.h"
   3          #include "Timer.h"
   4          #include "IMU.h"
   5          #include "74HC595.h"
   6          
   7          /* 上下 8X8 LED点阵*/
   8          u8 M0[8];               // 上点阵
   9          u8 M1[8];               // 下点阵
  10          
  11          mode_t mode = Infinite; // 沙漏的模式
  12          
  13          /* 姿态传感器相关变量*/
  14          xdata float roll;                                       // 横滚角，即对应沙漏的重心方向
  15          xdata u8 rollH, rollL;                          // Roll角数据的高低八位
  16          xdata u8 acce_YL, acce_YH;                      // Y轴加速度数据的高低八位
  17          xdata u8 acce_ZL, acce_ZH;                      // Z轴加速度数据的高低八位
  18          xdata float acce_X, acce_Y, acce_Z;     // X Y Z 三轴加速度
  19          u8 current_direction = DIR_UP;          // 当前重力方向
  20          
  21          /* 标志位变量 */
  22          bit rec_angle_flag              = FALSE; // 串口接收角度完成标志位
  23          bit rec_accel_flag              = FALSE; // 串口接收加速度完成标志位
  24          bit get_direction_flag  = TRUE;  // 能否通过陀螺仪获得角度的标志位
  25          bit pass_through_flag   = TRUE;  // 沙子穿越标志位
  26          xdata u8 shake_flag     = FALSE; // 检测摇晃发生标志位
  27          
  28          pass_through_t pass_dir = Forward;// 沙子穿越的方向,默认正向
  29          bit random_dir                  = 0;     // 沙子左右方向随机选择(0=左 1=右)
  30          
  31          u16 timer0_100us_cnt = 0;                // 定时器0的100us计数值
  32          u16 timer0_1s_cnt = 0;
  33          
  34          void main()
  35          {
  36   1              Matrix_clear(MATRIX0);  // 设置矩阵0初始状态
  37   1              Matrix_clear(MATRIX1);  // 设置矩阵0初始状态
  38   1              Matrix_fill(MATRIX0);   // 填充矩阵0(全部点亮)
  39   1              
  40   1              Timer0_Init();          // 定时器0初始化
  41   1              Uart_Init();            // 串口初始化
  42   1              EA = 1;                         // 打开总中断
  43   1              
  44   1              while(1)
  45   1              {
  46   2                      if(mode == Normal)
  47   2                      {
  48   3                              if (rec_angle_flag && get_direction_flag)
  49   3                                      Get_Direction();        // 获取重力方向
  50   3                              
  51   3                              if (rec_accel_flag)
  52   3                                      Get_Acceleration();             // 获取并检测加速度
  53   3                              
  54   3                              if(shake_flag)
C51 COMPILER V9.59.0.0   MAIN                                                              01/08/2024 18:39:23 PAGE 2   

  55   3                                      Acceleration_Action();  // 根据摇晃采取相应动作
  56   3                              
  57   3                              if (timer0_100us_cnt >= THROUGH_TIME) // 如果到达沙子穿越的时间
  58   3                              {
  59   4                                      if(pass_through_flag)
  60   4                                              PassThrough();            // 沙子在交界处穿越到另一点阵
  61   4                                      timer0_100us_cnt = 0; // 重置计数变量
  62   4                              }
  63   3                      }
  64   2                      else if(mode == Infinite)
  65   2                      {
  66   3                              if(Matrix_is_empty(M0))
  67   3                              {
  68   4                                      (current_direction == DIR_UP) ? (pass_dir = Reverse) : (pass_dir = Forward);
  69   4                              }
  70   3                              else if(Matrix_is_empty(M1))
  71   3                              {
  72   4                                      (current_direction == DIR_UP) ? (pass_dir = Forward) : (pass_dir = Reverse);
  73   4                              }
  74   3                              
  75   3                              if (rec_angle_flag && get_direction_flag)
  76   3                                      Get_Direction();        // 获取重力方向
  77   3                              
  78   3                              if (rec_accel_flag)
  79   3                                      Get_Acceleration();     // 获取并检测加速度
  80   3                              
  81   3                              if(shake_flag)
  82   3                                      Acceleration_Action();  // 根据摇晃采取相应动作
  83   3                              
  84   3                              if (timer0_100us_cnt >= THROUGH_TIME) // 如果到达沙子穿越的时间
  85   3                              {
  86   4                                      if(pass_through_flag)
  87   4                                              PassThrough();            // 沙子在交界处穿越到另一点阵
  88   4                                      timer0_100us_cnt = 0; // 重置计数变量
  89   4                              }                       
  90   3                      }
  91   2                      
  92   2                      Display_Update();                 // 刷新LED点阵
  93   2                      random_dir = !random_dir; // 刷新左右的随机方向
  94   2              }
  95   1      }
  96          
  97          
  98          /*定时器100us周期中断函数*/
  99          void Timer0_100us_IRQHander() interrupt 1       
 100          {
 101   1              //模式0(自动重装载)，故不用重新设置计数初值
 102   1              Matrix_Update();        // 更新沙子状态
 103   1              timer0_100us_cnt++; // 100us计数变量
 104   1      }
 105          
 106          
 107          /* 根据与姿态传感器的通信协议帧格式，利用状态机接收数据帧*/
 108          void Uart_IMU_IRQHander() interrupt 4 
 109          {
 110   1              static s8 rec_state=0;  // 状态机的接收状态
 111   1              u8 rec_data;                    // 接收到的数据
 112   1      
 113   1              rec_data = SBUF;                //将接收到的数据存到rec_data
 114   1              switch(rec_state)
 115   1              {
 116   2                      case 0:   // 0x55帧头1
C51 COMPILER V9.59.0.0   MAIN                                                              01/08/2024 18:39:23 PAGE 3   

 117   2                              if (rec_data == 0x55) rec_state = 1;
 118   2                              break;
 119   2                      case 1:   // 0x53为角度帧的帧头  0x51为加速度帧的帧头
 120   2                              if (rec_data == 0x53) rec_state = 2;     // 第二帧帧头数据代表接收角度
 121   2                              else if (rec_data == 0x51) rec_state = 4;// 第二帧帧头数据代表接收加速度
 122   2                              else rec_state = 0;     // 第二帧帧头错误，返回状态0
 123   2                              break;
 124   2                      case 2:         
 125   2                              rollL = rec_data;       // 横滚角低八位
 126   2                              rec_state = 3;          // 跳入下一个状态
 127   2                              break;
 128   2                      case 3:         
 129   2                              rollH = rec_data;       // 横滚角高八位
 130   2                              rec_state = 0;          // 返回状态0
 131   2                              rec_angle_flag = TRUE;  // 角度接收完毕，标志位置1
 132   2                              break;
 133   2                      case 4:                 
 134   2                              rec_state = 5;          // 没用到该字节，跳过
 135   2                              break;
 136   2                      case 5:
 137   2                              rec_state = 6;          // 没用到该字节，跳过
 138   2                              break;
 139   2                      case 6:
 140   2                              acce_YL = rec_data; // Y轴加速度低八位
 141   2                              rec_state = 7;
 142   2                              break;
 143   2                      case 7:
 144   2                              acce_YH = rec_data; // Y轴加速度高八位
 145   2                              rec_state = 8;
 146   2                              break;
 147   2                      case 8:
 148   2                              acce_ZL = rec_data; // Z轴加速度低八位
 149   2                              rec_state = 9;
 150   2                              break;
 151   2                      case 9:
 152   2                              acce_ZH = rec_data; // Z轴加速度高八位
 153   2                              rec_state = 0;
 154   2                              rec_accel_flag = TRUE;  // 加速度接收完毕，标志位置1
 155   2                              break;
 156   2                      default:
 157   2                              rec_state = 0;
 158   2                              break;
 159   2              }
 160   1              RI = 0;  //清除RI位
 161   1      }
 162          


MODULE INFORMATION:   STATIC OVERLAYABLE
   CODE SIZE        =    444    ----
   CONSTANT SIZE    =   ----    ----
   XDATA SIZE       =     23    ----
   PDATA SIZE       =   ----    ----
   DATA SIZE        =     24    ----
   IDATA SIZE       =   ----    ----
   BIT SIZE         =      5    ----
END OF MODULE INFORMATION.


C51 COMPILATION COMPLETE.  0 WARNING(S),  0 ERROR(S)
